{
  "contractName": "RootstockWall",
  "abi": [
    {
      "constant": true,
      "inputs": [],
      "name": "message",
      "outputs": [
        {
          "name": "",
          "type": "string"
        }
      ],
      "payable": false,
      "stateMutability": "view",
      "type": "function"
    },
    {
      "inputs": [
        {
          "name": "initialMessage",
          "type": "string"
        }
      ],
      "payable": false,
      "stateMutability": "nonpayable",
      "type": "constructor"
    },
    {
      "anonymous": false,
      "inputs": [
        {
          "indexed": false,
          "name": "newMessage",
          "type": "string"
        },
        {
          "indexed": false,
          "name": "payed",
          "type": "uint256"
        }
      ],
      "name": "NewBud",
      "type": "event"
    },
    {
      "constant": false,
      "inputs": [
        {
          "name": "_newMessage",
          "type": "string"
        }
      ],
      "name": "setMessage",
      "outputs": [],
      "payable": true,
      "stateMutability": "payable",
      "type": "function"
    }
  ],
  "bytecode": "0x6060604052341561000f57600080fd5b60405161045a38038061045a833981016040528080518201919050508060009080519060200190610041929190610048565b50506100ed565b828054600181600116156101000203166002900490600052602060002090601f016020900481019282601f1061008957805160ff19168380011785556100b7565b828001600101855582156100b7579182015b828111156100b657825182559160200191906001019061009b565b5b5090506100c491906100c8565b5090565b6100ea91905b808211156100e65760008160009055506001016100ce565b5090565b90565b61035e806100fc6000396000f30060606040526004361061004c576000357c0100000000000000000000000000000000000000000000000000000000900463ffffffff168063368b877214610051578063e21f37ce146100a3575b600080fd5b6100a1600480803590602001908201803590602001908080601f01602080910402602001604051908101604052809392919081815260200183838082843782019150505050505091905050610131565b005b34156100ae57600080fd5b6100b66101ef565b6040518080602001828103825283818151815260200191508051906020019080838360005b838110156100f65780820151818401526020810190506100db565b50505050905090810190601f1680156101235780820380516001836020036101000a031916815260200191505b509250505060405180910390f35b806000908051906020019061014792919061028d565b507fe433598f1afe5cd952c384244fbd47bbc14c8b1a102c5c3551d3901d50880a2d81346040518080602001838152602001828103825284818151815260200191508051906020019080838360005b838110156101b1578082015181840152602081019050610196565b50505050905090810190601f1680156101de5780820380516001836020036101000a031916815260200191505b50935050505060405180910390a150565b60008054600181600116156101000203166002900480601f0160208091040260200160405190810160405280929190818152602001828054600181600116156101000203166002900480156102855780601f1061025a57610100808354040283529160200191610285565b820191906000526020600020905b81548152906001019060200180831161026857829003601f168201915b505050505081565b828054600181600116156101000203166002900490600052602060002090601f016020900481019282601f106102ce57805160ff19168380011785556102fc565b828001600101855582156102fc579182015b828111156102fb5782518255916020019190600101906102e0565b5b509050610309919061030d565b5090565b61032f91905b8082111561032b576000816000905550600101610313565b5090565b905600a165627a7a72305820fbd57bbdc18733ac03e9383d325b99e68d7c55c68821e0ac519765db8bbba3820029",
  "source": "pragma solidity ^0.4.18;\r\n\r\ncontract RootstockWall {\r\n\r\n    string public message;\r\n\r\n    /** constructor with initial Message */\r\n    function RootstockWall(string initialMessage) public {\r\n        message = initialMessage;\r\n    }\r\n\r\n    /** Event fired when new message is deployed */\r\n    event NewBud(string newMessage, uint payed);\r\n    \r\n    /** sets a new message */\r\n    function setMessage(string _newMessage) payable public {\r\n        message = _newMessage;\r\n        NewBud(_newMessage, msg.value);\r\n    }\r\n}\r\n",
  "sourcePath": "C:\\Users\\esteb\\Documents\\proyects\\RootstockLog\\contracts\\RootstockWall.sol",
  "compiler": {
    "name": "solc",
    "version": "0.4.19+commit.c4cbbb05.Emscripten.clang"
  },
  "schemaVersion": "2.0.0",
  "updatedAt": "2018-03-28T16:19:58.702Z"
}