{
  "contractName": "RootstockWall",
  "abi": [
    {
      "constant": true,
      "inputs": [],
      "name": "message",
      "outputs": [
        {
          "name": "",
          "type": "string"
        }
      ],
      "payable": false,
      "stateMutability": "view",
      "type": "function"
    },
    {
      "inputs": [
        {
          "name": "initialMessage",
          "type": "string"
        }
      ],
      "payable": false,
      "stateMutability": "nonpayable",
      "type": "constructor"
    },
    {
      "anonymous": false,
      "inputs": [
        {
          "indexed": false,
          "name": "newMessage",
          "type": "string"
        }
      ],
      "name": "NewBud",
      "type": "event"
    },
    {
      "constant": false,
      "inputs": [
        {
          "name": "_newMessage",
          "type": "string"
        }
      ],
      "name": "setMessage",
      "outputs": [],
      "payable": false,
      "stateMutability": "nonpayable",
      "type": "function"
    }
  ],
  "bytecode": "0x6060604052341561000f57600080fd5b60405161045d38038061045d833981016040528080518201919050508060009080519060200190610041929190610048565b50506100ed565b828054600181600116156101000203166002900490600052602060002090601f016020900481019282601f1061008957805160ff19168380011785556100b7565b828001600101855582156100b7579182015b828111156100b657825182559160200191906001019061009b565b5b5090506100c491906100c8565b5090565b6100ea91905b808211156100e65760008160009055506001016100ce565b5090565b90565b610361806100fc6000396000f30060606040526004361061004c576000357c0100000000000000000000000000000000000000000000000000000000900463ffffffff168063368b877214610051578063e21f37ce146100ae575b600080fd5b341561005c57600080fd5b6100ac600480803590602001908201803590602001908080601f0160208091040260200160405190810160405280939291908181526020018383808284378201915050505050509190505061013c565b005b34156100b957600080fd5b6100c16101f2565b6040518080602001828103825283818151815260200191508051906020019080838360005b838110156101015780820151818401526020810190506100e6565b50505050905090810190601f16801561012e5780820380516001836020036101000a031916815260200191505b509250505060405180910390f35b8060009080519060200190610152929190610290565b507f375c3a203bc9fde6e03f5456ed9b97b0cc215df136bdb08145351070b640b716816040518080602001828103825283818151815260200191508051906020019080838360005b838110156101b557808201518184015260208101905061019a565b50505050905090810190601f1680156101e25780820380516001836020036101000a031916815260200191505b509250505060405180910390a150565b60008054600181600116156101000203166002900480601f0160208091040260200160405190810160405280929190818152602001828054600181600116156101000203166002900480156102885780601f1061025d57610100808354040283529160200191610288565b820191906000526020600020905b81548152906001019060200180831161026b57829003601f168201915b505050505081565b828054600181600116156101000203166002900490600052602060002090601f016020900481019282601f106102d157805160ff19168380011785556102ff565b828001600101855582156102ff579182015b828111156102fe5782518255916020019190600101906102e3565b5b50905061030c9190610310565b5090565b61033291905b8082111561032e576000816000905550600101610316565b5090565b905600a165627a7a72305820a1c93f831fe7800ea41fb94ece3205e16a01d84a7904e30e97f165561a7cc62d0029",
  "source": "pragma solidity ^0.4.18;\r\n\r\ncontract RootstockWall {\r\n\r\n    string public message;\r\n\r\n    /** constructor with initial Message */\r\n    function RootstockWall(string initialMessage) public {\r\n        message = initialMessage;\r\n    }\r\n\r\n    /** Event fired when new message is deployed */\r\n    event NewBud(string newMessage);\r\n    \r\n    /** sets a new message */\r\n    function setMessage(string _newMessage) public {\r\n        message = _newMessage;\r\n        NewBud(_newMessage);\r\n    }\r\n}\r\n",
  "sourcePath": "C:\\Users\\esteb\\Documents\\proyects\\RootstockWall\\contracts\\RootstockWall.sol",
  "compiler": {
    "name": "solc",
    "version": "0.4.19+commit.c4cbbb05.Emscripten.clang"
  },
  "schemaVersion": "2.0.0",
  "updatedAt": "2018-03-22T17:46:09.256Z"
}